{
    "_format": "hh-sol-artifact-1",
    "contractName": "RainbowPenguins",
    "sourceName": "contracts/Rainbowpenguins.sol",
    "abi": [
        {
            "inputs": [],
            "stateMutability": "payable",
            "type": "constructor"
        },
        {
            "anonymous": false,
            "inputs": [
                {
                    "indexed": true,
                    "internalType": "address",
                    "name": "owner",
                    "type": "address"
                },
                {
                    "indexed": true,
                    "internalType": "address",
                    "name": "approved",
                    "type": "address"
                },
                {
                    "indexed": true,
                    "internalType": "uint256",
                    "name": "tokenId",
                    "type": "uint256"
                }
            ],
            "name": "Approval",
            "type": "event"
        },
        {
            "anonymous": false,
            "inputs": [
                {
                    "indexed": true,
                    "internalType": "address",
                    "name": "owner",
                    "type": "address"
                },
                {
                    "indexed": true,
                    "internalType": "address",
                    "name": "operator",
                    "type": "address"
                },
                {
                    "indexed": false,
                    "internalType": "bool",
                    "name": "approved",
                    "type": "bool"
                }
            ],
            "name": "ApprovalForAll",
            "type": "event"
        },
        {
            "anonymous": false,
            "inputs": [
                {
                    "indexed": true,
                    "internalType": "address",
                    "name": "previousOwner",
                    "type": "address"
                },
                {
                    "indexed": true,
                    "internalType": "address",
                    "name": "newOwner",
                    "type": "address"
                }
            ],
            "name": "OwnershipTransferred",
            "type": "event"
        },
        {
            "anonymous": false,
            "inputs": [
                {
                    "indexed": true,
                    "internalType": "address",
                    "name": "from",
                    "type": "address"
                },
                {
                    "indexed": true,
                    "internalType": "address",
                    "name": "to",
                    "type": "address"
                },
                {
                    "indexed": true,
                    "internalType": "uint256",
                    "name": "tokenId",
                    "type": "uint256"
                }
            ],
            "name": "Transfer",
            "type": "event"
        },
        {
            "inputs": [
                {
                    "internalType": "address",
                    "name": "to",
                    "type": "address"
                },
                {
                    "internalType": "uint256",
                    "name": "tokenId",
                    "type": "uint256"
                }
            ],
            "name": "approve",
            "outputs": [],
            "stateMutability": "nonpayable",
            "type": "function"
        },
        {
            "inputs": [
                {
                    "internalType": "address",
                    "name": "owner",
                    "type": "address"
                }
            ],
            "name": "balanceOf",
            "outputs": [
                {
                    "internalType": "uint256",
                    "name": "",
                    "type": "uint256"
                }
            ],
            "stateMutability": "view",
            "type": "function"
        },
        {
            "inputs": [
                {
                    "internalType": "uint256",
                    "name": "tokenId",
                    "type": "uint256"
                }
            ],
            "name": "getApproved",
            "outputs": [
                {
                    "internalType": "address",
                    "name": "",
                    "type": "address"
                }
            ],
            "stateMutability": "view",
            "type": "function"
        },
        {
            "inputs": [
                {
                    "internalType": "address",
                    "name": "owner",
                    "type": "address"
                },
                {
                    "internalType": "address",
                    "name": "operator",
                    "type": "address"
                }
            ],
            "name": "isApprovedForAll",
            "outputs": [
                {
                    "internalType": "bool",
                    "name": "",
                    "type": "bool"
                }
            ],
            "stateMutability": "view",
            "type": "function"
        },
        {
            "inputs": [],
            "name": "isPublicMintEnabled",
            "outputs": [
                {
                    "internalType": "bool",
                    "name": "",
                    "type": "bool"
                }
            ],
            "stateMutability": "view",
            "type": "function"
        },
        {
            "inputs": [],
            "name": "maxPerWallet",
            "outputs": [
                {
                    "internalType": "uint256",
                    "name": "",
                    "type": "uint256"
                }
            ],
            "stateMutability": "view",
            "type": "function"
        },
        {
            "inputs": [],
            "name": "maxSupply",
            "outputs": [
                {
                    "internalType": "uint256",
                    "name": "",
                    "type": "uint256"
                }
            ],
            "stateMutability": "view",
            "type": "function"
        },
        {
            "inputs": [
                {
                    "internalType": "uint256",
                    "name": "quantity_",
                    "type": "uint256"
                }
            ],
            "name": "mint",
            "outputs": [],
            "stateMutability": "payable",
            "type": "function"
        },
        {
            "inputs": [],
            "name": "name",
            "outputs": [
                {
                    "internalType": "string",
                    "name": "",
                    "type": "string"
                }
            ],
            "stateMutability": "view",
            "type": "function"
        },
        {
            "inputs": [],
            "name": "owner",
            "outputs": [
                {
                    "internalType": "address",
                    "name": "",
                    "type": "address"
                }
            ],
            "stateMutability": "view",
            "type": "function"
        },
        {
            "inputs": [
                {
                    "internalType": "uint256",
                    "name": "tokenId",
                    "type": "uint256"
                }
            ],
            "name": "ownerOf",
            "outputs": [
                {
                    "internalType": "address",
                    "name": "",
                    "type": "address"
                }
            ],
            "stateMutability": "view",
            "type": "function"
        },
        {
            "inputs": [],
            "name": "penguinPrice",
            "outputs": [
                {
                    "internalType": "uint256",
                    "name": "",
                    "type": "uint256"
                }
            ],
            "stateMutability": "view",
            "type": "function"
        },
        {
            "inputs": [],
            "name": "renounceOwnership",
            "outputs": [],
            "stateMutability": "nonpayable",
            "type": "function"
        },
        {
            "inputs": [
                {
                    "internalType": "address",
                    "name": "from",
                    "type": "address"
                },
                {
                    "internalType": "address",
                    "name": "to",
                    "type": "address"
                },
                {
                    "internalType": "uint256",
                    "name": "tokenId",
                    "type": "uint256"
                }
            ],
            "name": "safeTransferFrom",
            "outputs": [],
            "stateMutability": "nonpayable",
            "type": "function"
        },
        {
            "inputs": [
                {
                    "internalType": "address",
                    "name": "from",
                    "type": "address"
                },
                {
                    "internalType": "address",
                    "name": "to",
                    "type": "address"
                },
                {
                    "internalType": "uint256",
                    "name": "tokenId",
                    "type": "uint256"
                },
                {
                    "internalType": "bytes",
                    "name": "_data",
                    "type": "bytes"
                }
            ],
            "name": "safeTransferFrom",
            "outputs": [],
            "stateMutability": "nonpayable",
            "type": "function"
        },
        {
            "inputs": [
                {
                    "internalType": "address",
                    "name": "operator",
                    "type": "address"
                },
                {
                    "internalType": "bool",
                    "name": "approved",
                    "type": "bool"
                }
            ],
            "name": "setApprovalForAll",
            "outputs": [],
            "stateMutability": "nonpayable",
            "type": "function"
        },
        {
            "inputs": [
                {
                    "internalType": "string",
                    "name": "baseTokenUri_",
                    "type": "string"
                }
            ],
            "name": "setBaseTokenUri",
            "outputs": [],
            "stateMutability": "nonpayable",
            "type": "function"
        },
        {
            "inputs": [
                {
                    "internalType": "bool",
                    "name": "isPublicMintEnabled_",
                    "type": "bool"
                }
            ],
            "name": "setIsPublicMintEnabled",
            "outputs": [],
            "stateMutability": "nonpayable",
            "type": "function"
        },
        {
            "inputs": [
                {
                    "internalType": "bytes4",
                    "name": "interfaceId",
                    "type": "bytes4"
                }
            ],
            "name": "supportsInterface",
            "outputs": [
                {
                    "internalType": "bool",
                    "name": "",
                    "type": "bool"
                }
            ],
            "stateMutability": "view",
            "type": "function"
        },
        {
            "inputs": [],
            "name": "symbol",
            "outputs": [
                {
                    "internalType": "string",
                    "name": "",
                    "type": "string"
                }
            ],
            "stateMutability": "view",
            "type": "function"
        },
        {
            "inputs": [
                {
                    "internalType": "uint256",
                    "name": "tokenId_",
                    "type": "uint256"
                }
            ],
            "name": "tokenURI",
            "outputs": [
                {
                    "internalType": "string",
                    "name": "",
                    "type": "string"
                }
            ],
            "stateMutability": "view",
            "type": "function"
        },
        {
            "inputs": [],
            "name": "totalSupply",
            "outputs": [
                {
                    "internalType": "uint256",
                    "name": "",
                    "type": "uint256"
                }
            ],
            "stateMutability": "view",
            "type": "function"
        },
        {
            "inputs": [
                {
                    "internalType": "address",
                    "name": "from",
                    "type": "address"
                },
                {
                    "internalType": "address",
                    "name": "to",
                    "type": "address"
                },
                {
                    "internalType": "uint256",
                    "name": "tokenId",
                    "type": "uint256"
                }
            ],
            "name": "transferFrom",
            "outputs": [],
            "stateMutability": "nonpayable",
            "type": "function"
        },
        {
            "inputs": [
                {
                    "internalType": "address",
                    "name": "newOwner",
                    "type": "address"
                }
            ],
            "name": "transferOwnership",
            "outputs": [],
            "stateMutability": "nonpayable",
            "type": "function"
        },
        {
            "inputs": [],
            "name": "withdraw",
            "outputs": [],
            "stateMutability": "nonpayable",
            "type": "function"
        },
        {
            "inputs": [],
            "name": "withdrawWallet",
            "outputs": [
                {
                    "internalType": "address payable",
                    "name": "",
                    "type": "address"
                }
            ],
            "stateMutability": "view",
            "type": "function"
        }
    ],
    "bytecode": "0x60806040526040518060400160405280601081526020017f5261696e626f772050656e6775696e73000000000000000000000000000000008152506040518060400160405280600481526020017f504e474e00000000000000000000000000000000000000000000000000000000815250816000908051906020019062000088929190620001d9565b508060019080519060200190620000a1929190620001d9565b505050620000c4620000b86200010b60201b60201c565b6200011360201b60201c565b662386f26fc10000600781905550600060088190555060076009819055506002600a819055506001600b60006101000a81548160ff021916908315150217905550620002ee565b600033905090565b6000600660009054906101000a900473ffffffffffffffffffffffffffffffffffffffff16905081600660006101000a81548173ffffffffffffffffffffffffffffffffffffffff021916908373ffffffffffffffffffffffffffffffffffffffff1602179055508173ffffffffffffffffffffffffffffffffffffffff168173ffffffffffffffffffffffffffffffffffffffff167f8be0079c531659141344cd1fd0a4f28419497f9722a3daafe3b4186f6b6457e060405160405180910390a35050565b828054620001e79062000289565b90600052602060002090601f0160209004810192826200020b576000855562000257565b82601f106200022657805160ff191683800117855562000257565b8280016001018555821562000257579182015b828111156200025657825182559160200191906001019062000239565b5b5090506200026691906200026a565b5090565b5b80821115620002855760008160009055506001016200026b565b5090565b60006002820490506001821680620002a257607f821691505b60208210811415620002b957620002b8620002bf565b5b50919050565b7f4e487b7100000000000000000000000000000000000000000000000000000000600052602260045260246000fd5b6133c080620002fe6000396000f3fe6080604052600436106101815760003560e01c8063715018a6116100d1578063a22cb4651161008a578063c87b56dd11610064578063c87b56dd1461053b578063d5abeb0114610578578063e985e9c5146105a3578063f2fde38b146105e057610181565b8063a22cb465146104be578063b88d4fde146104e7578063c482df9e1461051057610181565b8063715018a6146103e157806385d178f4146103f85780638da5cb5b1461042357806395652cfa1461044e57806395d89b4114610477578063a0712d68146104a257610181565b80632373ac221161013e57806342842e0e1161011857806342842e0e14610313578063453c23101461033c5780636352211e1461036757806370a08231146103a457610181565b80632373ac22146102aa57806323b872dd146102d35780633ccfd60b146102fc57610181565b80630116bc2d1461018657806301ffc9a7146101b157806306fdde03146101ee578063081812fc14610219578063095ea7b31461025657806318160ddd1461027f575b600080fd5b34801561019257600080fd5b5061019b610609565b6040516101a89190612823565b60405180910390f35b3480156101bd57600080fd5b506101d860048036038101906101d391906122a6565b61061c565b6040516101e59190612823565b60405180910390f35b3480156101fa57600080fd5b506102036106fe565b604051610210919061283e565b60405180910390f35b34801561022557600080fd5b50610240600480360381019061023b919061233d565b610790565b60405161024d91906127a1565b60405180910390f35b34801561026257600080fd5b5061027d60048036038101906102789190612241565b610815565b005b34801561028b57600080fd5b5061029461092d565b6040516102a19190612a80565b60405180910390f35b3480156102b657600080fd5b506102d160048036038101906102cc919061227d565b610933565b005b3480156102df57600080fd5b506102fa60048036038101906102f5919061213b565b6109cc565b005b34801561030857600080fd5b50610311610a2c565b005b34801561031f57600080fd5b5061033a6004803603810190610335919061213b565b610b79565b005b34801561034857600080fd5b50610351610b99565b60405161035e9190612a80565b60405180910390f35b34801561037357600080fd5b5061038e6004803603810190610389919061233d565b610b9f565b60405161039b91906127a1565b60405180910390f35b3480156103b057600080fd5b506103cb60048036038101906103c691906120d6565b610c51565b6040516103d89190612a80565b60405180910390f35b3480156103ed57600080fd5b506103f6610d09565b005b34801561040457600080fd5b5061040d610d91565b60405161041a91906127bc565b60405180910390f35b34801561042f57600080fd5b50610438610db7565b60405161044591906127a1565b60405180910390f35b34801561045a57600080fd5b50610475600480360381019061047091906122f8565b610de1565b005b34801561048357600080fd5b5061048c610e73565b604051610499919061283e565b60405180910390f35b6104bc60048036038101906104b7919061233d565b610f05565b005b3480156104ca57600080fd5b506104e560048036038101906104e09190612205565b610f5d565b005b3480156104f357600080fd5b5061050e6004803603810190610509919061218a565b610f73565b005b34801561051c57600080fd5b50610525610fd5565b6040516105329190612a80565b60405180910390f35b34801561054757600080fd5b50610562600480360381019061055d919061233d565b610fdb565b60405161056f919061283e565b60405180910390f35b34801561058457600080fd5b5061058d611057565b60405161059a9190612a80565b60405180910390f35b3480156105af57600080fd5b506105ca60048036038101906105c591906120ff565b61105d565b6040516105d79190612823565b60405180910390f35b3480156105ec57600080fd5b50610607600480360381019061060291906120d6565b6110f1565b005b600b60009054906101000a900460ff1681565b60007f80ac58cd000000000000000000000000000000000000000000000000000000007bffffffffffffffffffffffffffffffffffffffffffffffffffffffff1916827bffffffffffffffffffffffffffffffffffffffffffffffffffffffff191614806106e757507f5b5e139f000000000000000000000000000000000000000000000000000000007bffffffffffffffffffffffffffffffffffffffffffffffffffffffff1916827bffffffffffffffffffffffffffffffffffffffffffffffffffffffff1916145b806106f757506106f6826111e9565b5b9050919050565b60606000805461070d90612cd7565b80601f016020809104026020016040519081016040528092919081815260200182805461073990612cd7565b80156107865780601f1061075b57610100808354040283529160200191610786565b820191906000526020600020905b81548152906001019060200180831161076957829003601f168201915b5050505050905090565b600061079b82611253565b6107da576040517f08c379a00000000000000000000000000000000000000000000000000000000081526004016107d1906129e0565b60405180910390fd5b6004600083815260200190815260200160002060009054906101000a900473ffffffffffffffffffffffffffffffffffffffff169050919050565b600061082082610b9f565b90508073ffffffffffffffffffffffffffffffffffffffff168373ffffffffffffffffffffffffffffffffffffffff161415610891576040517f08c379a000000000000000000000000000000000000000000000000000000000815260040161088890612a20565b60405180910390fd5b8073ffffffffffffffffffffffffffffffffffffffff166108b06112bf565b73ffffffffffffffffffffffffffffffffffffffff1614806108df57506108de816108d96112bf565b61105d565b5b61091e576040517f08c379a000000000000000000000000000000000000000000000000000000000815260040161091590612960565b60405180910390fd5b61092883836112c7565b505050565b60085481565b61093b6112bf565b73ffffffffffffffffffffffffffffffffffffffff16610959610db7565b73ffffffffffffffffffffffffffffffffffffffff16146109af576040517f08c379a00000000000000000000000000000000000000000000000000000000081526004016109a690612a00565b60405180910390fd5b80600b60006101000a81548160ff02191690831515021790555050565b6109dd6109d76112bf565b82611380565b610a1c576040517f08c379a0000000000000000000000000000000000000000000000000000000008152600401610a1390612a40565b60405180910390fd5b610a2783838361145e565b505050565b610a346112bf565b73ffffffffffffffffffffffffffffffffffffffff16610a52610db7565b73ffffffffffffffffffffffffffffffffffffffff1614610aa8576040517f08c379a0000000000000000000000000000000000000000000000000000000008152600401610a9f90612a00565b60405180910390fd5b6000600e60009054906101000a900473ffffffffffffffffffffffffffffffffffffffff1673ffffffffffffffffffffffffffffffffffffffff1647604051610af09061278c565b60006040518083038185875af1925050503d8060008114610b2d576040519150601f19603f3d011682016040523d82523d6000602084013e610b32565b606091505b5050905080610b76576040517f08c379a0000000000000000000000000000000000000000000000000000000008152600401610b6d90612a60565b60405180910390fd5b50565b610b9483838360405180602001604052806000815250610f73565b505050565b600a5481565b6000806002600084815260200190815260200160002060009054906101000a900473ffffffffffffffffffffffffffffffffffffffff169050600073ffffffffffffffffffffffffffffffffffffffff168173ffffffffffffffffffffffffffffffffffffffff161415610c48576040517f08c379a0000000000000000000000000000000000000000000000000000000008152600401610c3f906129a0565b60405180910390fd5b80915050919050565b60008073ffffffffffffffffffffffffffffffffffffffff168273ffffffffffffffffffffffffffffffffffffffff161415610cc2576040517f08c379a0000000000000000000000000000000000000000000000000000000008152600401610cb990612980565b60405180910390fd5b600360008373ffffffffffffffffffffffffffffffffffffffff1673ffffffffffffffffffffffffffffffffffffffff168152602001908152602001600020549050919050565b610d116112bf565b73ffffffffffffffffffffffffffffffffffffffff16610d2f610db7565b73ffffffffffffffffffffffffffffffffffffffff1614610d85576040517f08c379a0000000000000000000000000000000000000000000000000000000008152600401610d7c90612a00565b60405180910390fd5b610d8f60006116c5565b565b600e60009054906101000a900473ffffffffffffffffffffffffffffffffffffffff1681565b6000600660009054906101000a900473ffffffffffffffffffffffffffffffffffffffff16905090565b610de96112bf565b73ffffffffffffffffffffffffffffffffffffffff16610e07610db7565b73ffffffffffffffffffffffffffffffffffffffff1614610e5d576040517f08c379a0000000000000000000000000000000000000000000000000000000008152600401610e5490612a00565b60405180910390fd5b8181600c9190610e6e929190611f18565b505050565b606060018054610e8290612cd7565b80601f0160208091040260200160405190810160405280929190818152602001828054610eae90612cd7565b8015610efb5780601f10610ed057610100808354040283529160200191610efb565b820191906000526020600020905b815481529060010190602001808311610ede57829003601f168201915b5050505050905090565b60005b81811015610f595760006001600854610f219190612b54565b905060086000815480929190610f3690612d3a565b9190505550610f45338261178b565b508080610f5190612d3a565b915050610f08565b5050565b610f6f610f686112bf565b83836117a9565b5050565b610f84610f7e6112bf565b83611380565b610fc3576040517f08c379a0000000000000000000000000000000000000000000000000000000008152600401610fba90612a40565b60405180910390fd5b610fcf84848484611916565b50505050565b60075481565b6060610fe682611253565b611025576040517f08c379a000000000000000000000000000000000000000000000000000000000815260040161101c906128e0565b60405180910390fd5b600c61103083611972565b60405160200161104192919061275d565b6040516020818303038152906040529050919050565b60095481565b6000600560008473ffffffffffffffffffffffffffffffffffffffff1673ffffffffffffffffffffffffffffffffffffffff16815260200190815260200160002060008373ffffffffffffffffffffffffffffffffffffffff1673ffffffffffffffffffffffffffffffffffffffff16815260200190815260200160002060009054906101000a900460ff16905092915050565b6110f96112bf565b73ffffffffffffffffffffffffffffffffffffffff16611117610db7565b73ffffffffffffffffffffffffffffffffffffffff161461116d576040517f08c379a000000000000000000000000000000000000000000000000000000000815260040161116490612a00565b60405180910390fd5b600073ffffffffffffffffffffffffffffffffffffffff168173ffffffffffffffffffffffffffffffffffffffff1614156111dd576040517f08c379a00000000000000000000000000000000000000000000000000000000081526004016111d490612880565b60405180910390fd5b6111e6816116c5565b50565b60007f01ffc9a7000000000000000000000000000000000000000000000000000000007bffffffffffffffffffffffffffffffffffffffffffffffffffffffff1916827bffffffffffffffffffffffffffffffffffffffffffffffffffffffff1916149050919050565b60008073ffffffffffffffffffffffffffffffffffffffff166002600084815260200190815260200160002060009054906101000a900473ffffffffffffffffffffffffffffffffffffffff1673ffffffffffffffffffffffffffffffffffffffff1614159050919050565b600033905090565b816004600083815260200190815260200160002060006101000a81548173ffffffffffffffffffffffffffffffffffffffff021916908373ffffffffffffffffffffffffffffffffffffffff160217905550808273ffffffffffffffffffffffffffffffffffffffff1661133a83610b9f565b73ffffffffffffffffffffffffffffffffffffffff167f8c5be1e5ebec7d5bd14f71427d1e84f3dd0314c0f7b2291e5b200ac8c7c3b92560405160405180910390a45050565b600061138b82611253565b6113ca576040517f08c379a00000000000000000000000000000000000000000000000000000000081526004016113c190612940565b60405180910390fd5b60006113d583610b9f565b90508073ffffffffffffffffffffffffffffffffffffffff168473ffffffffffffffffffffffffffffffffffffffff16148061144457508373ffffffffffffffffffffffffffffffffffffffff1661142c84610790565b73ffffffffffffffffffffffffffffffffffffffff16145b806114555750611454818561105d565b5b91505092915050565b8273ffffffffffffffffffffffffffffffffffffffff1661147e82610b9f565b73ffffffffffffffffffffffffffffffffffffffff16146114d4576040517f08c379a00000000000000000000000000000000000000000000000000000000081526004016114cb906128a0565b60405180910390fd5b600073ffffffffffffffffffffffffffffffffffffffff168273ffffffffffffffffffffffffffffffffffffffff161415611544576040517f08c379a000000000000000000000000000000000000000000000000000000000815260040161153b90612900565b60405180910390fd5b61154f838383611b1f565b61155a6000826112c7565b6001600360008573ffffffffffffffffffffffffffffffffffffffff1673ffffffffffffffffffffffffffffffffffffffff16815260200190815260200160002060008282546115aa9190612bdb565b925050819055506001600360008473ffffffffffffffffffffffffffffffffffffffff1673ffffffffffffffffffffffffffffffffffffffff16815260200190815260200160002060008282546116019190612b54565b92505081905550816002600083815260200190815260200160002060006101000a81548173ffffffffffffffffffffffffffffffffffffffff021916908373ffffffffffffffffffffffffffffffffffffffff160217905550808273ffffffffffffffffffffffffffffffffffffffff168473ffffffffffffffffffffffffffffffffffffffff167fddf252ad1be2c89b69c2b068fc378daa952ba7f163c4a11628f55a4df523b3ef60405160405180910390a46116c0838383611b24565b505050565b6000600660009054906101000a900473ffffffffffffffffffffffffffffffffffffffff16905081600660006101000a81548173ffffffffffffffffffffffffffffffffffffffff021916908373ffffffffffffffffffffffffffffffffffffffff1602179055508173ffffffffffffffffffffffffffffffffffffffff168173ffffffffffffffffffffffffffffffffffffffff167f8be0079c531659141344cd1fd0a4f28419497f9722a3daafe3b4186f6b6457e060405160405180910390a35050565b6117a5828260405180602001604052806000815250611b29565b5050565b8173ffffffffffffffffffffffffffffffffffffffff168373ffffffffffffffffffffffffffffffffffffffff161415611818576040517f08c379a000000000000000000000000000000000000000000000000000000000815260040161180f90612920565b60405180910390fd5b80600560008573ffffffffffffffffffffffffffffffffffffffff1673ffffffffffffffffffffffffffffffffffffffff16815260200190815260200160002060008473ffffffffffffffffffffffffffffffffffffffff1673ffffffffffffffffffffffffffffffffffffffff16815260200190815260200160002060006101000a81548160ff0219169083151502179055508173ffffffffffffffffffffffffffffffffffffffff168373ffffffffffffffffffffffffffffffffffffffff167f17307eab39ab6107e8899845ad3d59bd9653f200f220920489ca2b5937696c31836040516119099190612823565b60405180910390a3505050565b61192184848461145e565b61192d84848484611b84565b61196c576040517f08c379a000000000000000000000000000000000000000000000000000000000815260040161196390612860565b60405180910390fd5b50505050565b606060008214156119ba576040518060400160405280600181526020017f30000000000000000000000000000000000000000000000000000000000000008152509050611b1a565b600082905060005b600082146119ec5780806119d590612d3a565b915050600a826119e59190612baa565b91506119c2565b60008167ffffffffffffffff811115611a2e577f4e487b7100000000000000000000000000000000000000000000000000000000600052604160045260246000fd5b6040519080825280601f01601f191660200182016040528015611a605781602001600182028036833780820191505090505b5090505b60008514611b1357600182611a799190612bdb565b9150600a85611a889190612d83565b6030611a949190612b54565b60f81b818381518110611ad0577f4e487b7100000000000000000000000000000000000000000000000000000000600052603260045260246000fd5b60200101907effffffffffffffffffffffffffffffffffffffffffffffffffffffffffffff1916908160001a905350600a85611b0c9190612baa565b9450611a64565b8093505050505b919050565b505050565b505050565b611b338383611d1b565b611b406000848484611b84565b611b7f576040517f08c379a0000000000000000000000000000000000000000000000000000000008152600401611b7690612860565b60405180910390fd5b505050565b6000611ba58473ffffffffffffffffffffffffffffffffffffffff16611ef5565b15611d0e578373ffffffffffffffffffffffffffffffffffffffff1663150b7a02611bce6112bf565b8786866040518563ffffffff1660e01b8152600401611bf094939291906127d7565b602060405180830381600087803b158015611c0a57600080fd5b505af1925050508015611c3b57506040513d601f19601f82011682018060405250810190611c3891906122cf565b60015b611cbe573d8060008114611c6b576040519150601f19603f3d011682016040523d82523d6000602084013e611c70565b606091505b50600081511415611cb6576040517f08c379a0000000000000000000000000000000000000000000000000000000008152600401611cad90612860565b60405180910390fd5b805181602001fd5b63150b7a0260e01b7bffffffffffffffffffffffffffffffffffffffffffffffffffffffff1916817bffffffffffffffffffffffffffffffffffffffffffffffffffffffff191614915050611d13565b600190505b949350505050565b600073ffffffffffffffffffffffffffffffffffffffff168273ffffffffffffffffffffffffffffffffffffffff161415611d8b576040517f08c379a0000000000000000000000000000000000000000000000000000000008152600401611d82906129c0565b60405180910390fd5b611d9481611253565b15611dd4576040517f08c379a0000000000000000000000000000000000000000000000000000000008152600401611dcb906128c0565b60405180910390fd5b611de060008383611b1f565b6001600360008473ffffffffffffffffffffffffffffffffffffffff1673ffffffffffffffffffffffffffffffffffffffff1681526020019081526020016000206000828254611e309190612b54565b92505081905550816002600083815260200190815260200160002060006101000a81548173ffffffffffffffffffffffffffffffffffffffff021916908373ffffffffffffffffffffffffffffffffffffffff160217905550808273ffffffffffffffffffffffffffffffffffffffff16600073ffffffffffffffffffffffffffffffffffffffff167fddf252ad1be2c89b69c2b068fc378daa952ba7f163c4a11628f55a4df523b3ef60405160405180910390a4611ef160008383611b24565b5050565b6000808273ffffffffffffffffffffffffffffffffffffffff163b119050919050565b828054611f2490612cd7565b90600052602060002090601f016020900481019282611f465760008555611f8d565b82601f10611f5f57803560ff1916838001178555611f8d565b82800160010185558215611f8d579182015b82811115611f8c578235825591602001919060010190611f71565b5b509050611f9a9190611f9e565b5090565b5b80821115611fb7576000816000905550600101611f9f565b5090565b6000611fce611fc984612ac0565b612a9b565b905082815260208101848484011115611fe657600080fd5b611ff1848285612c95565b509392505050565b6000813590506120088161332e565b92915050565b60008135905061201d81613345565b92915050565b6000813590506120328161335c565b92915050565b6000815190506120478161335c565b92915050565b600082601f83011261205e57600080fd5b813561206e848260208601611fbb565b91505092915050565b60008083601f84011261208957600080fd5b8235905067ffffffffffffffff8111156120a257600080fd5b6020830191508360018202830111156120ba57600080fd5b9250929050565b6000813590506120d081613373565b92915050565b6000602082840312156120e857600080fd5b60006120f684828501611ff9565b91505092915050565b6000806040838503121561211257600080fd5b600061212085828601611ff9565b925050602061213185828601611ff9565b9150509250929050565b60008060006060848603121561215057600080fd5b600061215e86828701611ff9565b935050602061216f86828701611ff9565b9250506040612180868287016120c1565b9150509250925092565b600080600080608085870312156121a057600080fd5b60006121ae87828801611ff9565b94505060206121bf87828801611ff9565b93505060406121d0878288016120c1565b925050606085013567ffffffffffffffff8111156121ed57600080fd5b6121f98782880161204d565b91505092959194509250565b6000806040838503121561221857600080fd5b600061222685828601611ff9565b92505060206122378582860161200e565b9150509250929050565b6000806040838503121561225457600080fd5b600061226285828601611ff9565b9250506020612273858286016120c1565b9150509250929050565b60006020828403121561228f57600080fd5b600061229d8482850161200e565b91505092915050565b6000602082840312156122b857600080fd5b60006122c684828501612023565b91505092915050565b6000602082840312156122e157600080fd5b60006122ef84828501612038565b91505092915050565b6000806020838503121561230b57600080fd5b600083013567ffffffffffffffff81111561232557600080fd5b61233185828601612077565b92509250509250929050565b60006020828403121561234f57600080fd5b600061235d848285016120c1565b91505092915050565b61236f81612c21565b82525050565b61237e81612c0f565b82525050565b61238d81612c33565b82525050565b600061239e82612b06565b6123a88185612b1c565b93506123b8818560208601612ca4565b6123c181612e70565b840191505092915050565b60006123d782612b11565b6123e18185612b38565b93506123f1818560208601612ca4565b6123fa81612e70565b840191505092915050565b600061241082612b11565b61241a8185612b49565b935061242a818560208601612ca4565b80840191505092915050565b6000815461244381612cd7565b61244d8186612b49565b945060018216600081146124685760018114612479576124ac565b60ff198316865281860193506124ac565b61248285612af1565b60005b838110156124a457815481890152600182019150602081019050612485565b838801955050505b50505092915050565b60006124c2603283612b38565b91506124cd82612e81565b604082019050919050565b60006124e5602683612b38565b91506124f082612ed0565b604082019050919050565b6000612508602583612b38565b915061251382612f1f565b604082019050919050565b600061252b601c83612b38565b915061253682612f6e565b602082019050919050565b600061254e602583612b38565b915061255982612f97565b604082019050919050565b6000612571602483612b38565b915061257c82612fe6565b604082019050919050565b6000612594601983612b38565b915061259f82613035565b602082019050919050565b60006125b7602c83612b38565b91506125c28261305e565b604082019050919050565b60006125da603883612b38565b91506125e5826130ad565b604082019050919050565b60006125fd602a83612b38565b9150612608826130fc565b604082019050919050565b6000612620602983612b38565b915061262b8261314b565b604082019050919050565b6000612643602083612b38565b915061264e8261319a565b602082019050919050565b6000612666602c83612b38565b9150612671826131c3565b604082019050919050565b6000612689602083612b38565b915061269482613212565b602082019050919050565b60006126ac602183612b38565b91506126b78261323b565b604082019050919050565b60006126cf600083612b2d565b91506126da8261328a565b600082019050919050565b60006126f2603183612b38565b91506126fd8261328d565b604082019050919050565b6000612715601583612b38565b9150612720826132dc565b602082019050919050565b6000612738600483612b49565b915061274382613305565b600482019050919050565b61275781612c8b565b82525050565b60006127698285612436565b91506127758284612405565b91506127808261272b565b91508190509392505050565b6000612797826126c2565b9150819050919050565b60006020820190506127b66000830184612375565b92915050565b60006020820190506127d16000830184612366565b92915050565b60006080820190506127ec6000830187612375565b6127f96020830186612375565b612806604083018561274e565b81810360608301526128188184612393565b905095945050505050565b60006020820190506128386000830184612384565b92915050565b6000602082019050818103600083015261285881846123cc565b905092915050565b60006020820190508181036000830152612879816124b5565b9050919050565b60006020820190508181036000830152612899816124d8565b9050919050565b600060208201905081810360008301526128b9816124fb565b9050919050565b600060208201905081810360008301526128d98161251e565b9050919050565b600060208201905081810360008301526128f981612541565b9050919050565b6000602082019050818103600083015261291981612564565b9050919050565b6000602082019050818103600083015261293981612587565b9050919050565b60006020820190508181036000830152612959816125aa565b9050919050565b60006020820190508181036000830152612979816125cd565b9050919050565b60006020820190508181036000830152612999816125f0565b9050919050565b600060208201905081810360008301526129b981612613565b9050919050565b600060208201905081810360008301526129d981612636565b9050919050565b600060208201905081810360008301526129f981612659565b9050919050565b60006020820190508181036000830152612a198161267c565b9050919050565b60006020820190508181036000830152612a398161269f565b9050919050565b60006020820190508181036000830152612a59816126e5565b9050919050565b60006020820190508181036000830152612a7981612708565b9050919050565b6000602082019050612a95600083018461274e565b92915050565b6000612aa5612ab6565b9050612ab18282612d09565b919050565b6000604051905090565b600067ffffffffffffffff821115612adb57612ada612e41565b5b612ae482612e70565b9050602081019050919050565b60008190508160005260206000209050919050565b600081519050919050565b600081519050919050565b600082825260208201905092915050565b600081905092915050565b600082825260208201905092915050565b600081905092915050565b6000612b5f82612c8b565b9150612b6a83612c8b565b9250827fffffffffffffffffffffffffffffffffffffffffffffffffffffffffffffffff03821115612b9f57612b9e612db4565b5b828201905092915050565b6000612bb582612c8b565b9150612bc083612c8b565b925082612bd057612bcf612de3565b5b828204905092915050565b6000612be682612c8b565b9150612bf183612c8b565b925082821015612c0457612c03612db4565b5b828203905092915050565b6000612c1a82612c6b565b9050919050565b6000612c2c82612c6b565b9050919050565b60008115159050919050565b60007fffffffff0000000000000000000000000000000000000000000000000000000082169050919050565b600073ffffffffffffffffffffffffffffffffffffffff82169050919050565b6000819050919050565b82818337600083830152505050565b60005b83811015612cc2578082015181840152602081019050612ca7565b83811115612cd1576000848401525b50505050565b60006002820490506001821680612cef57607f821691505b60208210811415612d0357612d02612e12565b5b50919050565b612d1282612e70565b810181811067ffffffffffffffff82111715612d3157612d30612e41565b5b80604052505050565b6000612d4582612c8b565b91507fffffffffffffffffffffffffffffffffffffffffffffffffffffffffffffffff821415612d7857612d77612db4565b5b600182019050919050565b6000612d8e82612c8b565b9150612d9983612c8b565b925082612da957612da8612de3565b5b828206905092915050565b7f4e487b7100000000000000000000000000000000000000000000000000000000600052601160045260246000fd5b7f4e487b7100000000000000000000000000000000000000000000000000000000600052601260045260246000fd5b7f4e487b7100000000000000000000000000000000000000000000000000000000600052602260045260246000fd5b7f4e487b7100000000000000000000000000000000000000000000000000000000600052604160045260246000fd5b6000601f19601f8301169050919050565b7f4552433732313a207472616e7366657220746f206e6f6e20455243373231526560008201527f63656976657220696d706c656d656e7465720000000000000000000000000000602082015250565b7f4f776e61626c653a206e6577206f776e657220697320746865207a65726f206160008201527f6464726573730000000000000000000000000000000000000000000000000000602082015250565b7f4552433732313a207472616e736665722066726f6d20696e636f72726563742060008201527f6f776e6572000000000000000000000000000000000000000000000000000000602082015250565b7f4552433732313a20746f6b656e20616c7265616479206d696e74656400000000600082015250565b7f4f6f70732120546869732070656e6775696e20646f6573206e6f74206578697360008201527f7420796574000000000000000000000000000000000000000000000000000000602082015250565b7f4552433732313a207472616e7366657220746f20746865207a65726f2061646460008201527f7265737300000000000000000000000000000000000000000000000000000000602082015250565b7f4552433732313a20617070726f766520746f2063616c6c657200000000000000600082015250565b7f4552433732313a206f70657261746f7220717565727920666f72206e6f6e657860008201527f697374656e7420746f6b656e0000000000000000000000000000000000000000602082015250565b7f4552433732313a20617070726f76652063616c6c6572206973206e6f74206f7760008201527f6e6572206e6f7220617070726f76656420666f7220616c6c0000000000000000602082015250565b7f4552433732313a2062616c616e636520717565727920666f7220746865207a6560008201527f726f206164647265737300000000000000000000000000000000000000000000602082015250565b7f4552433732313a206f776e657220717565727920666f72206e6f6e657869737460008201527f656e7420746f6b656e0000000000000000000000000000000000000000000000602082015250565b7f4552433732313a206d696e7420746f20746865207a65726f2061646472657373600082015250565b7f4552433732313a20617070726f76656420717565727920666f72206e6f6e657860008201527f697374656e7420746f6b656e0000000000000000000000000000000000000000602082015250565b7f4f776e61626c653a2063616c6c6572206973206e6f7420746865206f776e6572600082015250565b7f4552433732313a20617070726f76616c20746f2063757272656e74206f776e6560008201527f7200000000000000000000000000000000000000000000000000000000000000602082015250565b50565b7f4552433732313a207472616e736665722063616c6c6572206973206e6f74206f60008201527f776e6572206e6f7220617070726f766564000000000000000000000000000000602082015250565b7f4f6f707321205769746864726177206661696c65640000000000000000000000600082015250565b7f6a736f6e00000000000000000000000000000000000000000000000000000000600082015250565b61333781612c0f565b811461334257600080fd5b50565b61334e81612c33565b811461335957600080fd5b50565b61336581612c3f565b811461337057600080fd5b50565b61337c81612c8b565b811461338757600080fd5b5056fea2646970667358221220f76a0b03551d201a96dafc6f48b17c10e1ceb096a7c56797c553995c3514689b64736f6c63430008040033",
    "linkReferences": {},
    "deployedLinkReferences": {}
}